S01000006F6E6C696E6531322E737265632C
S11300000C942A000C9447000C9447000C9447006D
S11300100C9447000C9447000C9447000C94470040
S11300200C9447000C9447000C9447000C94470030
S11300300C9447000C943C040C9447000C94470027
S11300400C947B020C9447000C9447000C944700DA
S11300500C94470011241FBECFE5D8E0DEBFCDBF0E
S113006010E0A0E6B0E0E2E9FDE002C005900D92E8
S1130070A239B107D9F720E0A2E9B0E001C01D928E
S1130080A13BB207E1F70E9400020C94C7060C944E
S11300900000CF93C82F60E081E00E949E036C2F84
S11300A0661F6627661F86E00E949E03C6FB6627BE
S11300B060F985E00E949E03C5FB662760F984E031
S11300C00E949E03C4FB662760F983E00E949E039E
S11300D061E082E00E949E038FEC97E00197F1F7C4
S11300E000C0000060E082E00E949E03C3FB66271C
S11300F060F986E00E949E03C2FB662760F985E0F2
S11301000E949E03C1FB662760F984E00E949E035F
S11301106C2F617083E00E949E0361E082E00E9484
S11301209E038FEC97E00197F1F700C0000060E0B8
S113013082E00E949E038FEC97E00197F1F700C0E4
S11301400000CF910895CF93C82F61E081E00E9411
S11301509E036C2F661F6627661F86E00E949E031F
S1130160C6FB662760F985E00E949E03C5FB6627EF
S113017060F984E00E949E03C4FB662760F983E073
S11301800E949E0361E082E00E949E038FEC97E050
S11301900197F1F700C0000060E082E00E949E0336
S11301A0C3FB662760F986E00E949E03C2FB6627B4
S11301B060F985E00E949E03C1FB662760F984E034
S11301C00E949E036C2F617083E00E949E0361E095
S11301D082E00E949E038FEC97E00197F1F700C044
S11301E0000060E082E00E949E038FEC97E001979C
S11301F0F1F700C00000CF9108952FE788E391E064
S1130200215080409040E1F700C0000082E00E944D
S1130210490088E20E9449008CE00E94490081E084
S11302200E9449008FEC97E00197F1F700C00000AD
S113023086E00E94490008950E94A30008950F9348
S11302401F93CF93DF938C01C0E0D0E003C00E94E2
S11302501C012196F801EC0FFD1F80818111F7CF5D
S1130260DF91CF911F910F9108952F923F924F925A
S11302705F926F927F928F929F92AF92BF92CF9232
S1130280DF92EF92FF920F931F93CF93DF93CDB73B
S1130290DEB766970FB6F894DEBF0FBECDBF2D8BC9
S11302A03E8B942E852E762E672E382E292EA0E096
S11302B00E94B20619F480E30E941C012D893E8934
S11302C0492D582D672D762D832D922DA0E00E9467
S11302D0B206ACF48DE20E941C012D893E89492DA1
S11302E0582D672D762D832D922D0E944D062D8B32
S11302F03E8B942E852E762E672E382E292EFE01C7
S1130300319684E1DF011D928A95E9F7412C512C45
S113031031C00F2EFAE0AF2EF02DB12CC12CD12C10
S1130320E12CF12C00E010E02D893E89492D582D57
S1130330672D762D832D922D0E94BD05E1E0F0E01E
S1130340EC0FFD1FE40DF51D20832D893E89492DF9
S1130350582D672D762D832D922D0E94BF052D8B50
S11303603E8B942E852E762E672E382E292EBFEFA7
S11303704B1A5B0A2D893E89492D582D672D762D00
S1130380832D922DA0E00E94B20619F60BC0E1E085
S1130390F0E0EC0FFD1FE80DF91D8081805D0E94E7
S11303A01C012401420181E0881A9108452879F74B
S11303B066960FB6F894DEBF0FBECDBFDF91CF9126
S11303C01F910F91FF90EF90DF90CF90BF90AF906F
S11303D09F908F907F906F905F904F903F902F9061
S11303E00895811105C0862F80680E9449000895F0
S11303F0813029F480E4860F80680E9449000895C2
S11304000E9423040E9433040E94FD0080E890E0CF
S11304100E941F0146E060E081E00E942A020E94DF
S1130420C1040E94E2040E941705EC0160E081E02F
S11304300E94F101CE01282F392F40E050E060E006
S113044070E080E090E00E9435018EE890E00E9428
S11304501F01E7CF97B19F7397B98295880F880FD3
S1130460807C97B1892B87B986B18E7F942F917048
S1130470892B86B986B141FBEE27E0F9F0E0EE0F57
S1130480FF1F8D7FE82BE6B986B142FB222720F9B6
S113049030E0220F331F220F331F8B7F282B26B906
S11304A087B190E1699FB00111248F7E682B67B9F1
S11304B086B1806286B980B78F7780BF80B78F7B23
S11304C080BF80B78F7D80BF86B1806886B986B1D2
S11304D0806486B9089597B1907E97B98F7197B16A
S11304E0892B87B986B1806486B93699FECF84B1E9
S11304F095B1937008951F920F920FB60F92112425
S11305002F933F934F935F936F937F938F939F9317
S1130510AF93BF93EF93FF9384B195B10E945905B4
S1130520FF91EF91BF91AF919F918F917F916F91C7
S11305305F914F913F912F910F900FBE0F901F909D
S11305401895982F9695969596958770613009F42D
S113055055C020F0623009F4A1C008959130C1F073
S113056028F0923039F19330B9F108954AB321E07B
S113057030E0B90102C0660F771F8A95E2F7CB011C
S1130580942F982B9ABB9BB3809589238BBB08959A
S113059047B321E030E0B90102C0660F771F8A95A6
S11305A0E2F7CB01942F982B97BB98B380958923BE
S11305B088BB089544B321E030E0B90102C0660F5E
S11305C0771F8A95E2F7CB01942F982B94BB95B3B0
S11305D08095892385BB089541B321E030E0B901BA
S11305E002C0660F771F8A95E2F7CB01942F982BF0
S11305F091BB92B38095892382BB08959130C1F059
S113060028F0923039F19330B9F108954AB321E0DA
S113061030E0B90102C0660F771F8A95E2F7CB017B
S11306208095942F98239ABB9BB389238BBB089501
S113063047B321E030E0B90102C0660F771F8A9505
S1130640E2F7CB018095942F982397BB98B3892325
S113065088BB089544B321E030E0B90102C0660FBD
S1130660771F8A95E2F7CB018095942F982394BB4A
S113067095B3892385BB089541B321E030E0B901E6
S113068002C0660F771F8A95E2F7CB018095942FFD
S1130690982391BB92B3892382BB08959130C1F012
S11306A028F0923039F19330B9F108954AB321E03A
S11306B030E0B90102C0660F771F8A95E2F7CB01DB
S11306C0962F909594239ABB9BB3892B8BBB08954B
S11306D047B321E030E0B90102C0660F771F8A9565
S11306E0E2F7CB01962F9095942397BB98B3892B6F
S11306F088BB089544B321E030E0B90102C0660F1D
S1130700771F8A95E2F7CB01962F9095942394BB9B
S113071095B3892B85BB089541B321E030E0B9013D
S113072002C0660F771F8A95E2F7CB01962F90954A
S1130730942391BB92B3892B82BB0895982F9695ED
S11307409695969587706130E1F5913099F028F08F
S11307509230E9F0933041F108954BB321E030E059
S1130760B90102C0660F771F8A95E2F7CB01842B8B
S11307708BBB089548B321E030E0B90102C0660F95
S1130780771F8A95E2F7CB01842B88BB089545B384
S113079021E030E0B90102C0660F771F8A95E2F7C5
S11307A0CB01842B85BB089542B321E030E0B9012D
S11307B002C0660F771F8A95E2F7CB01842B82BBB8
S11307C0089561113FC09130A1F028F09230F9F002
S11307D0933059F108954BB321E030E0B90102C0E0
S11307E0660F771F8A95E2F7CB01809584238BBB34
S11307F0089548B321E030E0B90102C0660F771FC5
S11308008A95E2F7CB018095842388BB089545B38C
S113081021E030E0B90102C0660F771F8A95E2F744
S1130820CB018095842385BB089542B321E030E059
S1130830B90102C0660F771F8A95E2F7CB01809554
S1130840842382BB0895CF93C0E009C0EC2FF0E06D
S1130850E05AFF4F60818C2F0E94A102CF5FC0320B
S1130860A8F3CF91089582E389B98AB180618AB9E6
S11308708AB188608AB908951F920F920FB60F92B9
S113088011248F938CB1809392008F910F900FBE9F
S11308900F901F9018959091940080919500981353
S11308A006C080919300882321F081E0089581E0BF
S11308B0089580E008950F931F93CF938C01C09106
S11308C09400C43011F4109293000E944B048823C6
S11308D0D1F0EC2FF0E0EE0FFF1FEA56FF4F8081BE
S11308E09181F80191838083CF5F8DECC89F812D26
S11308F0112486958695982F990F990F890FC81BF7
S1130900C093940081E0CF911F910F91089590912D
S1130910940080919500981306C0809193008130D3
S113092021F081E0089581E0089582E008950F9315
S11309301F93CF938C01C0919500C43019F481E0CA
S1130940809393000E9487048230B9F0EC2FF0E08A
S1130950EE0FFF1FEA56FF4F11830083CF5F8DEC2C
S1130960C89F812D112486958695982F990F990FEC
S1130970890FC81BC093950081E0CF911F910F91FF
S11309800895CF93C0E01AC080E00E946B024091AA
S1130990A0005091A1006091A2007091A300480FA3
S11309A0591F611D711D4093A0005093A1006093D5
S11309B0A2007093A3000E949704CF5FC53020F378
S11309C0CF9108950F931F93CF93DF9300D0CDB7AA
S11309D0DEB71A82198280E00E946B028C01CE017C
S11309E001960E945B0429813A818091A000909134
S11309F0A100A091A200B091A300821B930BA109B6
S1130A00B109800F911FA11DB11D8093A000909387
S1130A10A100A093A200B093A300C8010E94970470
S1130A200F900F90DF91CF911F910F9108958F92A6
S1130A309F92AF92BF92CF92DF92EF92FF920F9369
S1130A406091A0007091A1008091A2009091A300F8
S1130A502DEC3CEC4CEC5CEC0E94920500E20E9414
S1130A609606822E932EA42EB52ED501C401B695DA
S1130A70A79597958795B695A795979587950F917F
S1130A80FF90EF90DF90CF90BF90AF909F908F90AA
S1130A9008959091A5008091A600981306C08091B6
S1130AA0A400813021F081E0089581E0089582E07E
S1130AB008950F931F93CF938C01C091A600C43067
S1130AC019F481E08093A4000E9449058230B9F0B2
S1130AD0EC2FF0E0EE0FFF1FE955FF4F1183008369
S1130AE0CF5F8DECC89F812D112486958695982F14
S1130AF0990F990F890FC81BC093A60081E0CF916D
S1130B001F910F910895A29FB001B39FC001A39FAD
S1130B10700D811D1124911DB29F700D811D112432
S1130B20911D0895E894DF93CF93FC01DB010E94AB
S1130B3083057F936F93E9019A01AC01BF93AF934F
S1130B403F932F93DF010E94830526F46C1B7D0BDA
S1130B50820B930B9E01EB01FC010E94BE06AF9138
S1130B60BF912F913F910E94BE06BE01CF01F901B2
S1130B702F913F91CF91DF910895689401C0E8943B
S1130B80F92FF12B12F00C94F105A0E0B0E0EBEC9E
S1130B90F5E00C946306092E059422F40E944D0698
S1130BA0112392F4F0E80F26FFEFE094F0940095FF
S1130BB01095B094C094D094A194BF0ACF0ADF0AD0
S1130BC0EF0AFF0A0F0B1F0B0E94FC0507FC0E9493
S1130BD04D06CDB7DEB7ECE00C947F06689401C0F7
S1130BE0E8948F929F92CF93DF930E94FC05DF914C
S1130BF0CF919F908F90089588249924F401E40163
S1130C00B0E49F93AA279A158B049C04ED05FE0576
S1130C10CF05D007A10798F4AD2FDC2FCF2FFE2FDF
S1130C20E92D982C892E982F872F762F652F542FF6
S1130C30432F322F2227B85031F7BF9127C01B2EE4
S1130C40BF91BB27220F331F441F551F661F771FF9
S1130C50881F991F881C991CEE1FFF1FCC1FDD1FC6
S1130C60AA1FBB1F8A149B04EC05FD05CE05DF05F6
S1130C70A007B10748F08A189B08EC09FD09CE09C2
S1130C80DF09A00BB10B21601A94E1F62EF4940154
S1130C90AF01BE01CD01000C08956095709580955B
S1130CA0909530954095509521953F4F4F4F5F4F0C
S1130CB06F4F7F4F8F4F9F4F08952F923F924F92C8
S1130CC05F926F927F928F929F92AF92BF92CF92D8
S1130CD0DF92EF92FF920F931F93CF93DF93CDB7E1
S1130CE0DEB7CA1BDB0B0FB6F894DEBF0FBECDBF59
S1130CF009942A88398848885F846E847D848C842A
S1130D009B84AA84B984C884DF80EE80FD800C8132
S1130D101B81AA81B981CE0FD11D0FB6F894DEBF15
S1130D200FBECDBFED01089597FB10F8169400088F
S1130D300F93083098F00850232F342F452F562F47
S1130D40672F782F892F902DF4CF05949795879549
S1130D507795679557954795379527950A95AAF7F7
S1130D600F9108950024A7FD00942A17300540052B
S1130D705005600570058005900508950E9483055F
S1130D80460F571FC81FD91F08F431960895F894C9
S1050D90FFCF8F
S1130D920100000000000001010101000000000048
S1130DA20200020000000000000002020202000031
S1130DB26465766963652066696C746572002020D7
S1050DC200002B
S9030000FC
