:100000000C942A000C9453020C947C020C9447002C
:100010000C9447000C9447000C9484030C94320316
:100020000C945B030C9409030C94AD030C94B7037C
:100030000C94A5020C94C1030C9447000C94EA03A1
:100040000C94CE000C9447000C9447000C9447008D
:100050000C94470011241FBECFE5D8E0DEBFCDBF12
:1000600010E0A0E6B0E0EEE9F8E002C005900D92E5
:10007000A038B107D9F720E0A0E8B0E001C01D9298
:10008000A93AB207E1F70E94C1000C944D040C9408
:100090000000CF93C82F60E081E00E94F4006C2F35
:1000A000661F6627661F86E00E94F400C6FB66276F
:1000B00060F985E00E94F400C5FB662760F984E0E2
:1000C0000E94F400C4FB662760F983E00E94F400FC
:1000D00061E082E00E94F4008FEC97E00197F1F775
:1000E00000C0000060E082E00E94F400C3FB6627CD
:1000F00060F986E00E94F400C2FB662760F985E0A3
:100100000E94F400C1FB662760F984E00E94F400BD
:100110006C2F617083E00E94F40061E082E00E9435
:10012000F4008FEC97E00197F1F700C0000060E069
:1001300082E00E94F4008FEC97E00197F1F700C095
:100140000000CF9108952FE788E391E0215080408F
:100150009040E1F700C0000082E00E94490088E280
:100160000E9449008CE00E94490081E00E94490001
:100170008FEC97E00197F1F700C0000086E00C9447
:1001800049000E9475010E94A30062E083E00E9482
:10019000CE0282E00E94EE021CBEFFCF1F920F92A1
:1001A0000FB60F9211242F933F934F935F936F934A
:1001B0007F938F939F93AF93BF93EF93FF9384B1FC
:1001C00095B10E942104FF91EF91BF91AF919F9152
:1001D0008F917F916F915F914F913F912F910F90F0
:1001E0000FBE0F901F901895982F969596959695FF
:1001F00087706130C1F5913091F028F09230D9F0DC
:10020000933029F108954BB321E030E0B90102C0E9
:10021000660F771F8A95E2F7CB01842B3AC048B36B
:1002200021E030E0B90102C0660F771F8A95E2F73E
:10023000CB01842B3CC045B321E030E0B90102C0C2
:10024000660F771F8A95E2F7CB01842B3EC042B33D
:1002500021E030E0B90102C0660F771F8A95E2F70E
:10026000CB01842B40C061113FC09130A1F028F038
:100270009230F9F0933059F108954BB321E030E01A
:10028000B90102C0660F771F8A95E2F7CB0180950E
:1002900084238BBB089548B321E030E0B90102C04C
:1002A000660F771F8A95E2F7CB018095842388BB80
:1002B000089545B321E030E0B90102C0660F771F11
:1002C0008A95E2F7CB018095842385BB089542B3DC
:1002D00021E030E0B90102C0660F771F8A95E2F78E
:1002E000CB018095842382BB0895E0E6F0E040E0F6
:1002F00081E090E05191342F369536953695242F34
:100300002770513009F443C020F0523009F482C004
:10031000C5C0323001F1333061F1313071F05AB380
:10032000BC0102C0660F771F2A95E2F79B01352FAB
:10033000322B3ABB3BB320953DC057B3BC0102C042
:10034000660F771F2A95E2F79B01352F322B37BBBB
:1003500038B320953EC054B3BC0102C0660F771F6E
:100360002A95E2F79B01352F322B34BB35B320950C
:100370003FC051B3BC0102C0660F771F2A95E2F758
:100380009B01352F322B31BB32B3209541C0323027
:1003900011F1333081F1313079F05AB3BC0102C030
:1003A000660F771F2A95E2F79B012095352F3223A0
:1003B0003ABB3BB3232342C057B3BC0102C0660F14
:1003C000771F2A95E2F79B012095352F322337BB03
:1003D00038B3232343C054B3BC0102C0660F771F58
:1003E0002A95E2F79B012095352F322334BB35B394
:1003F000232325BB53C051B3BC0102C0660F771F36
:100400002A95E2F79B012095352F322331BB32B379
:10041000232343C0323021F1333089F1313081F070
:100420005AB3BC0102C0660F771F2A95E2F79B0101
:10043000362F309535233ABB3BB3232B2BBB2EC035
:1004400057B3BC0102C0660F771F2A95E2F79B01E4
:10045000362F3095352337BB38B3232B28BB1EC02E
:1004600054B3BC0102C0660F771F2A95E2F79B01C7
:10047000362F3095352334BB35B3232BBACF51B348
:10048000BC0102C0660F771F2A95E2F79B01362F49
:100490003095352331BB32B3232B22BB4F5F403223
:1004A00009F028CF08951F920F920FB60F921124D2
:1004B0002F933F934F935F936F937F938F939F936C
:1004C000AF93BF93EF93FF93E0918200F09183008D
:1004D000309709F00995FF91EF91BF91AF919F91EE
:1004E0008F917F916F915F914F913F912F910F90DD
:1004F0000FBE0F901F9018951F920F920FB60F927C
:1005000011242F933F934F935F936F937F938F9318
:100510009F93AF93BF93EF93FF93E0918000F0918F
:100520008100309709F00995FF91EF91BF91AF914C
:100530009F918F917F916F915F914F913F912F91FB
:100540000F900FBE0F901F9018951F920F920FB62D
:100550000F9211242F933F934F935F936F937F9349
:100560008F939F93AF93BF93EF93FF93E091A70077
:10057000F091A800309709F00995FF91EF91BF9194
:10058000AF919F918F917F916F915F914F913F912B
:100590002F910F900FBE0F901F901895813059F03A
:1005A00038F0823071F0833091F483B780640BC0EF
:1005B00083B78F7B02C083B7806483BF83B7877F95
:1005C00005C083B78F7B83BF83B7886083BF83B742
:1005D000887F83BF83B7682B63BF0895813049F05C
:1005E00028F0823061F0833069F0089583B78F7E00
:1005F00002C083B7806183BF83B78F7D08C083B794
:100600008F7E02C083B7806183BF83B7806283BF60
:1006100008951F920F920FB60F9211242F933F93BC
:100620004F935F936F937F938F939F93AF93BF93FA
:10063000EF93FF93E0918A00F0918B00309709F0DF
:100640000995FF91EF91BF91AF919F918F917F910C
:100650006F915F914F913F912F910F900FBE0F902F
:100660001F9018951F920F920FB60F9211242F937F
:100670003F934F935F936F937F938F939F93AF932A
:10068000BF93EF93FF93E0918800F091890030973A
:1006900009F00995FF91EF91BF91AF919F918F91D3
:1006A0007F916F915F914F913F912F910F900FBE6E
:1006B0000F901F9018951F920F920FB60F92112452
:1006C0002F933F934F935F936F937F938F939F935A
:1006D000AF93BF93EF93FF93E0918600F091870073
:1006E000309709F00995FF91EF91BF91AF919F91DC
:1006F0008F917F916F915F914F913F912F910F90CB
:100700000FBE0F901F9018951F920F920FB60F9269
:1007100011242F933F934F935F936F937F938F9306
:100720009F93AF93BF93EF93FF93E0918400F09179
:100730008500309709F00995FF91EF91BF91AF9136
:100740009F918F917F916F915F914F913F912F91E9
:100750000F900FBE0F901F9018951F920F920FB61B
:100760000F9211240F900FBE0F901F9018951F929B
:100770000F920FB60F9211240F900FBE0F901F9083
:1007800018951F920F920FB60F9211242F933F933B
:100790004F935F936F937F938F939F93AF93BF9389
:1007A000EF93FF93E0918E00F0918F00309709F066
:1007B0000995FF91EF91BF91AF919F918F917F919B
:1007C0006F915F914F913F912F910F900FBE0F90BE
:1007D0001F9018951F920F920FB60F9211242F930E
:1007E0003F934F935F936F937F938F939F93AF93B9
:1007F000BF93EF93FF93E0918C00F0918D003097C1
:1008000009F00995FF91EF91BF91AF919F918F9161
:100810007F916F915F914F913F912F910F900FBEFC
:100820000F901F90189590919100809192009813CD
:1008300006C080919000813011F482E0089581E03B
:100840000895CF93DF93EC010E9413048230B1F03E
:1008500080919200893019F491E090939000E82FF4
:10086000F0E0EE0FFF1FED56FF4FD183C0838F5F87
:100870006AE00E9441049093920081E0DF91CF9161
:100880000895991B79E004C0991F961708F0961BEC
:0E089000881F7A95C9F780950895F894FFCFD8
:10089E000000000000000000000000000000010049
:1008AE000000000000000000000002020202010031
:00000001FF
